:10000000081A002049180000075B000001180000D2
:10001000011800000118000001180000011800007C
:10002000000000000000000000000000C5140000F7
:100030000118000000000000691400000118000011
:100040005515000055150000551500005515000008
:1000500055150000551500005515000055150000F8
:1000600055150000551500005515000055150000E8
:1000700055150000551500005515000055150000D8
:1000800055150000551500005515000055150000C8
:1000900055150000551500005515000055150000B8
:1000A00055150000551500005515000055150000A8
:1000B0005515000055150000551500005515000098
:1000C0005515000055150000551500005515000088
:1000D0005515000055150000551500005515000078
:1000E0005515000055150000551500005515000068
:1000F0005515000055150000551500005515000058
:100100005515000055150000551500005515000047
:100110005515000055150000551500005515000037
:100120005515000055150000551500005515000027
:100130005515000055150000551500005515000017
:100140005515000055150000551500005515000007
:040150005515000041
:1001540053B94AB9002908BF00281CBF4FF0FF312A
:100164004FF0FF3000F00CB8ADF1080C6DE904CE8F
:1001740000F008F8DDF804E0DDE9022304B070477C
:10018400704700BF2DE9F04786468C460846089E16
:10019400154674461946002B40F0C1808542B2FAD8
:1001A40082F245D94AB1C2F1200300FA02FC95401B
:1001B40094402EFA03F343EA0C0C4FEA154EA8B20E
:1001C400230CBCFBFEF80EFB18CC08FB00F943EA39
:1001D4000C43994528D9EB1808F1FF3704D2994507
:1001E40002D9A8F102072B44A3EB0903A4B2B3FB81
:1001F400FEFC0EFB1C330CFB00F044EA0344A0425B
:1002040014D92C190CF1FF3304D2A04202D9ACF159
:1002140002032C44241A43EA07401EB1D4400023AD
:1002240034607360BDE8F0874746DDE76346F1E775
:1002340092BB431B01214FEA154EAFB2200CB3FB16
:10024400FEFC0EFB1C330CFB07F840EA0343984505
:1002540061D9EB180CF1FF3004D2984502D9ACF106
:1002640002002B44A3EB0803A4B2B3FBFEFC0EFB79
:100274001C330CFB07F744EA0344A7424DD92C195D
:100284000CF1FF3304D2A74202D9ACF102032C448F
:10029400E41B43EA0040C0E7C2F1200395409440C8
:1002A40020FA03F12EFA03F34FEA154E9040AFB251
:1002B4000343B1FBFEFC0EFB1C10190C0CFB07F8EE
:1002C40041EA0041884522D969180CF1FF3004D273
:1002D400884502D9ACF102002944A1EB08019BB284
:1002E400B1FBFEFC0EFB1C110CFB07F743EA0143B8
:1002F4009F420ED9EB180CF1FF3104D29F4202D970
:10030400ACF102012B44DB1B41EA004193E7604658
:10031400E3E76146F7E76046A4E76346B8E783424C
:1003240006D916B9002108467CE7C6E900E0F9E7DA
:10033400B3FA83F78FB9834201D3724508D8BEEB71
:10034400020460EB030301209C461EB9002169E707
:100354003846FAE7C6E9004CF8E7C7F1200CBB4081
:100364000EFA07F522FA0CF42EFA0CF1BA401C43EB
:1003740020FA0CF3B8404FEA144901431FFA84FEF3
:10038400B3FBF9F809FB18300B0C08FB0EFA43EA2F
:1003940000439A4540D9E31808F1FF3004D29A4546
:1003A40002D9A8F102002344A3EB0A0389B2B3FBE8
:1003B400F9F809FB183308FB0EFE41EA03418E45A8
:1003C4002CD9611808F1FF3304D28E4502D9A8F163
:1003D4000203214443EA0040A1EB0E01A0FB029872
:1003E4004145CE46434602D306D14D4504D2013899
:1003F400B9EB020E68EB0403002EA7D0B5EB0E0296
:1004040061EB030101FA0CFC22FA07F3F9404CEA10
:100414000303C6E9003199E74046C5E74346D9E7F7
:1004240010B500EA010414F0010F09D114F0020F11
:100434000AD114F0040F0BD114F0080F0CD110BD25
:10044400074804F03DFFF1E7064804F039FFF0E700
:10045400054804F035FFEFE7044804F031FFEEE708
:10046400487600005C760000707600008476000018
:1004740008B5094802F07AFC20B902F021FD0146D2
:1004840028B908BD0146054804F01AFFF5E70448F9
:1004940004F016FFF5E700BF25040000987600007D
:1004A400B876000008B5FFF7E3FF044804F008FF3E
:1004B4004FF40040002104F063FBF6E7D47600001B
:1004C40008B5024B1B68984708BD00BF0000002018
:1004D400014B1860704700BF0000002000B583B0D6
:1004E40002460B4600210091024800F01DF903B0BA
:1004F4005DF804FBC50400002DE9F04383B0044615
:1005040008461546238B13F0080F05D103F00706A0
:1005140000230093019355E0012909D043F02003FF
:10052400238385F31188BFF36F8F03B0BDE8F08395
:1005340043F010032383F4E7204604F003FF43E071
:10054400D4F814904A466946204604F014FF4FF04C
:100554000008238B03F00707B74269D0A268002A7A
:1005640066D0012243F00803238385F31188BFF387
:100574006F8F002A64D1009B2BB14B463A466946E3
:10058400204604F071FFB8F1000F02D03449204630
:10059400C0474FF02003EFF3118583F31288BFF3B4
:1005A4006F8F238B23F008032383238B13F0100F07
:1005B4004CD023F0100323830120268B06F007067A
:1005C4000028AED00228B7D00028AAD001380428C9
:1005D4002AD801A353F820F0450500002D06000099
:1005E400F105000005060000190600002369D3F890
:1005F40000800621204604F07BFE4FF00009A8E7A6
:100604002369D3F804800421204604F071FE4FF0DE
:1006140000099EE72369D3F808800521204604F0E9
:1006240067FE4FF0000994E74FF00008C14690E7D9
:10063400009A0AB1002295E7B8F1000F92D1B4E70D
:100644004A463946204604F05BFE94E713F0200F37
:1006540004D023F0200323830220AEE70020ACE77C
:100664009B54000084460846012226E09CF8003092
:1006740043F004038CF80030F2B101301CE09CF824
:10068400003043F008038CF80030F5E79CF80030A4
:1006940043F010038CF80030EEE79CF8003043F090
:1006A40020038CF80030E7E79CF8003043F0400367
:1006B4008CF80030E0E7002242B30378203B102B93
:1006C400F9D801A151F823F091060000BB060000FF
:1006D400BB0600009F060000BB060000BB0600002E
:1006E400BB060000BB060000BB060000BB06000002
:1006F400BB06000083060000BB0600007106000074
:10070400BB060000BB060000AD0600009CF80030EC
:1007140003F04403442B00D070479CF800306FF37F
:1007240086138CF80030F7E72DE9F04F91B00646B8
:100734000D4691460393002499F80000002800F028
:10074400B982252808D009F101092946B0470028B3
:10075400C0F2B1820134EFE70023049305930693BA
:10076400079308930993494606A805F0B0F8029048
:100774009DF8193013F0010F00F09780039B1A1DA8
:1007840003921F68002FC0F288809DF8193013F07F
:10079400040F00F09C80039B1A1D0392D3F800A061
:1007A400BAF1000FC0F28A800023079308939DF8E2
:1007B4001A3003F007039DF81910C1F3C301012B8C
:1007C40000F08E80022B00F0D380042B00F02481F3
:1007D400032B00F03B819DF8188018F0030B40F0C8
:1007E4003B819DF81B30253B532B00F2CA81DFE887
:1007F40013F04001C801C801C801C801C801C801FB
:10080400C801C801C801C801C801C801C801C8019C
:10081400C801C801C801C801C801C801C801C8018C
:10082400C801C801C801C801C801C801C801C8017C
:10083400C801C801C801C801C801C801C801C8016C
:10084400C801C801C801C801C801C801C801C8015C
:10085400C801C801C801C8018101C801C801C80193
:10086400C801C801C801C801C801C801C8015E01A6
:100874006701C801C801C801C8016701C801C801EE
:10088400C801C801BD018101A101C801C8014D0110
:10089400C8018101C801C80181019DF8183043F0E5
:1008A40004038DF818307F426FE79DF91830002B50
:1008B40002DB4FF0FF3768E7079F66E79DF81930C2
:1008C4006FF341038DF819304FF0FF3A6CE713F0E2
:1008D400020F02D0DDF820A066E74FF0FF3A63E78D
:1008E400CB1E042B04D8DFE803F00B1D293535009B
:1008F400039B1A1D03921B68DA170493059206E002
:10090400039B1A1D03921B68DA17049305920129AD
:1009140028D002297FF45FAFBDF91030DA170493B1
:10092400059258E7039B073323F0070303F10802FA
:100934000392D3E90023CDE90423E8E7039B0733BB
:1009440023F0070303F108020392D3E90023CDE95E
:100954000423DCE7039B1A1D03921B68DA17049334
:100964000592D4E79DF91030DA170493059232E723
:10097400CB1E042B04D8DFE803F00B1F35414100E4
:10098400039B1A1D03921B680493002305931EE026
:100994009DF81B30632B07D0039B1A1D03921B6821
:1009A40004930023059312E0039B1A1D03921B6812
:1009B4000493002305930AE0039B073323F0070302
:1009C40003F108020392D3E90023CDE904230129AA
:1009D4001CD002297FF4FFAEBDF81030049300232D
:1009E4000593F8E6039B073323F0070303F108029A
:1009F4000392D3E90023CDE90423E8E7039B1A1DFE
:100A040003921B68049300230593E0E79DF81030DC
:100A1400049300230593DEE608290BD0039B0733D8
:100A240023F0070303F108020392D3E90023CDE97D
:100A34000423D0E6039B073323F0070303F10802E2
:100A44000392D3E90023CDE90423C4E6039B1A1DD2
:100A540003921B680493BEE6029F3B464A4629461E
:100A6400304604F0DAFF0028C0F225810444B94678
:100A740062E629462520B0470028C0F21C810134D3
:100A8400D8460DF13E0A4FF000097FE0DDF81090E2
:100A9400BAF1000F07DB5146484605F0FEF809EBB2
:100AA400000AD84672E0484605F0EEF8F7E7049BE2
:100AB4008DF82830D8460DF1290A0DF1280965E092
:100AC40018F0080F05D118F0100804D04FF02008D2
:100AD40001E04FF02B08049A059B002B02DB0492E3
:100AE400059308E0524263EB4303049205934FF0ED
:100AF4002D0800E0D8460DF13E0300930AAB06AA88
:100B0400DDE9040104F01AFF8146BAF1000F6CDB41
:100B14000DF13E03A3EB09039DF818206FF3861231
:100B24008DF818209A4563D9AAEB030307930DF1B6
:100B34003E0A2BE0049828B9D846DFF880A1AAF130
:100B4400050923E00DF13E0300930AAB06AA002138
:100B540004F0F4FE81469DF81A3043F010038DF83A
:100B64001A3078238DF81B30D846CEE722460499F4
:100B740006A804F033FFD8460DF13E0A4FF00009F1
:100B840004E0D8460DF13E0A4FF00009B9F1000F18
:100B940000F08D80AAEB0903B8F1000F00D00133F7
:100BA4009DF81A2012F0100F25D0023307990B4438
:100BB40012F0400F01D0089A1344002F31DDFF1AC0
:100BC4009DF8183013F0040F2BD113F0400F17D0F9
:100BD400B8F1000F17D029464046B04700286ADB19
:100BE4000134D8464FF0300B0FE00DF13E0ACDE74B
:100BF4000DF13E0ACAE712F0080FD7D00133D5E74A
:100C04004FF0200B01E04FF0300B3B465F1E002BF2
:100C140007DD29465846B04700284CDB01343B46E3
:100C2400F4E7B8F1000F05D029464046B047002844
:100C340041DB01349DF81A30C3F30012C3F3C0033F
:100C44001A4305D029463020B047002833DB01344D
:100C54009DF81A3013F0100F06D029469DF81B009A
:100C6400B047002827DB0134079B03F1FF38002B32
:100C740007DD29463020B04700281CDB01344346F9
:100C8400F3E753464A462946304604F0C6FE002898
:100C940011DB0444002F07DD29462020B04700283B
:100CA40009DB0134013FF5E7DDF8089044E5DDF8A0
:100CB400089041E5204611B0BDE8F08F0D770000A3
:100CC40008B54FF02002EFF3118382F31288BFF3CB
:100CD4006F8F04F049FF034804F0F2FA00F030FB90
:100CE400FCE700BF1077000068B108B5064A074B5F
:100CF4001B680749A1FB03139B0C00FB03F042F0A4
:100D04000103984708BD7047407600004800002062
:100D140083DE1B430F4B7E22C3F80C27C3F83C2908
:100D24000D4A7F23C2F818310C490023C1F8043E50
:100D3400C1F8083E01F54821C1F81031C2F8243148
:100D4400C2F82C3102F5FF1202F58052C2F8A0322B
:100D5400704700BF00400050002000500090035036
:100D640070B54FF02003EFF3118683F31288BFF3BD
:100D74006F8F0125124BC3F80055124C0223C4F89F
:100D8400D036114AD2F8003223F0E04343F0405306
:100D9400C2F80032D2F8043223F0E04343F0405367
:100DA400C2F80432FFF7B6FFC4F80457C4F8045974
:100DB400C4F8005B86F31188BFF36F8F002070BD09
:100DC40000100050004000500025845038B51E4BE0
:100DD4001B7801331D4AA2FB031202F4FE7101EBDE
:100DE40092029C1AE5B205F0E2FB194B1B782BB179
:100DF400184A52F82530C01A07281CD9164B00226D
:100E04001A704FF05023D3F814315BB14FF05023D4
:100E1400C3F81421D3F814310B4B1D7015B90C4BC6
:100E240001221A70084B1C7805F0C1FB094B43F8EA
:100E34002400012038BD084B1B7813B9064B01224E
:100E44001A700020F6E700BFBA0C0020CDCCCCCC41
:100E5400B90C002018040020B80C0020062800D08B
:100E6400704708B5014804F0F7FD00BF004000508A
:100E740002F04EB870B505464FF02003EFF311862B
:100E840083F31288BFF36F8F0E4B1C680DE0A268CA
:100E94003AB10D4B1B7D03EB43030C4911F82300BE
:100EA40090472346246804B123B12CB1002DEED021
:100EB4006268EDE71C46F8E786F31188BFF36F8F8D
:100EC40070BD00BF440400209C0A002038040020A8
:100ED40008B5064B23B14178007804F0C4FD08BD81
:100EE400002383F31188BFF36F8FF8E76B5A000078
:100EF40070B50E4B1C7D21460D4804F0BAFD00B9B7
:100F040070BD650004EB44000A4E06EB8000FFF759
:100F1400DFFF0020FFF7AEFF2B19990006EB8303D8
:100F2400002272505A609A60EAE700BF9C0A0020CF
:100F34004C04002038040020F8B50546384B1C7DCD
:100F44004FF02003EFF3118683F31288BFF36F8F02
:100F540004EB4402334B13F82230002B39D0324BCC
:100F640003EB820C2F4F4FEA820E07EB820393E8C8
:100F740007008CE80700002307F80E3086F3118879
:100F8400BFF36F8F04EB4403274A12F82330002B7E
:100F940044D0B5F1FF3F2BD103F000FB0120FFF754
:100FA40069FF2146214804F07CFD214B5BB11E4AB8
:100FB40004EB440302EB830304EB4404597812F872
:100FC4002400FFF74BFFFFF793FF03F0E9FC012038
:100FD400F8BD0146204600F031F80028CED004EBDD
:100FE4004401114B03EB810307C883E80700C5E7FD
:100FF40004EB44020C4B03EB82039868410CC003DE
:101004000C4BC0180C4A4FF0000341F10001FFF7EC
:101014009FF80121281A06F000F9BDE70020D7E760
:101024009C0A00202C040020380400204C040020DA
:10103400610E00003F420F0040420F002DE9F041D5
:1010440082B00E4601A900F045F8441E24B207E020
:10105400B6F1FF3F33D08044B04530D9013C24B2CF
:10106400002C2BDB019B04EB440203EB8205697823
:1010740013F8220004F024FD0028EFD16868410C25
:10108400C003114FC019114A4FF0000341F1000190
:10109400FFF75EF88046AB68590CDB03D8190B4A9E
:1010A4004FF0000341F10001FFF752F8084B1B68B1
:1010B400B3F1FF3FCCD08342CAD8CFE700252846FE
:1010C40002B0BDE8F08100BF3F420F0040420F0074
:1010D4000400002008B9024B0B600020704700BFD9
:1010E4004477000008B5024803F0A6FF08BD00BF1E
:1010F40044770000B0F5680F17D00CD840F6BA63F7
:10110400984214D0B0F5683F13D03A2801D001209A
:10111400704700207047094B98420CD0084B984206
:1011240001D0012070470020704700207047002044
:101134007047002070470020704700BF3A00003A13
:101144002C5F5CA928B308B54368B3F5683F0AD09F
:10115400B3F5680F14D012498B421FD0006802F017
:10116400B3FF002014E003680022D3E8EF1F012935
:1011740003D1C3E8E02F0028F7D10DD1104607E0D2
:1011840003681B7803F580730020064A42F82300A5
:1011940008BD6FF4E04070470348F9E70348F7E7F8
:1011A4002C5F5CA900000350E98FFFFFEA8FFFFF6B
:1011B40088B308B54368B3F5683F0FD0B3F5680F3B
:1011C40019D016498B4224D000684FF0FF324FF0FB
:1011D400FF3302F0F5FE68B111480BE00368012209
:1011E400D3E8EF1F002903D1C3E8E02F0028F7D18B
:1011F4000BD1002008BD03681B7803F58073094AEE
:1012040052F823301BB90020F4E70548F2E70448FC
:10121400F0E70548EEE76FF4E04070472C5F5CA907
:10122400E98FFFFF00000350EA8FFFFF10B504466B
:10123400A8B16368B3F5683F10D0B3F5680F0DD05B
:101244000C4A93420AD013F4686F0DD021460A4821
:1012540005F010FD00232360064B636010BD074BAF
:101264005B6807489847E4E714220021206804F0EB
:101274004DFDF1E72C5F5CA950090020D40000204B
:101284004C77000010B5044668B36068B0F5683F59
:1012940028D0B0F5680F25D0174B984228D0FFF717
:1012A40029FFC0B14FF0FF324FF0FF3321461348FE
:1012B40002F046FD08B923681BB9114B5B6811485D
:1012C400984714220021206804F020FD0023636065
:1012D4004FF468636360206805F05AFD636843F067
:1012E4003A03636010BD064B5B6807489847CCE738
:1012F4002368002BD3D1D5E72C5F5CA950090020CB
:10130400D4000020747700004C77000008B5402317
:1013140014220449044805F09FFC0449044803F0DE
:10132400FDFE08BD5004002050090020A4770000F1
:10133400B8770000014910220A60704710ED00E000
:1013440072B6404080F31188BFF36F8F01B5FFF789
:101354003DFD002802D0BFF34F8F30BFBDE80140F0
:1013640062B6BFF36F8F704772B6494081F311883C
:1013740001B5FFF72BFD002802D0BFF34F8F20BF2C
:10138400BDE8014080F3118862B67047002807DB8E
:1013940000F01F02400901239340024A42F8203022
:1013A400704700BF00E100E0002808DB4901C9B232
:1013B40000F1604000F5614080F80013704700F0D0
:1013C4000F004901C9B2014B1954704714ED00E0F4
:1013D4004209054B53F8222000F01F00012303FAB1
:1013E40000F01040704700BF00E100E030BFFFF79D
:1013F400FDBF00BF08B50B4B0B4A22F07F029A6079
:10140400BFF34F8FBFF36F8FD3F8882022F470029D
:10141400C3F8882002F0E0FB03F02EFC00F0F8F99A
:1014240002F036FC00ED00E0000000000A4A936878
:10143400C3F8A80009490968C3F8AC1008494B6807
:1014440043F080534B60002383F31188BFF36F8F05
:101454009368D3F8AC0070479C0A0020B879000068
:1014640000ED00E014498A684FF030001044EFF3B7
:10147400098C80E8F01F202080F31288BFF36F8F5F
:101484000E4F4FF00066CA698A603E60D2F8A80029
:101494000023C2F8A83080F3118802F1300090E8EC
:1014A400F01F8CF3098802F1000004B504F02FFB4F
:1014B400BDE80440704700009C0A002004ED00E0F1
:1014C4001EF0040F0CBFEFF30880EFF3098081696D
:1014D40011F8021C0229FFD001B504F0FBFA01BD8A
:1014E40010B4A2F120040E4942F8081C21F00101B5
:1014F40042F8081C42F8203C019B42F81C3C029B29
:1015040042F8183C039B42F8143C4FF0807342F8B5
:10151400043C04650023C0F8A83010BC704700BF29
:10152400E1520000094B9860D0F8983083F30B889F
:10153400104681F30988002163B681F31188BFF353
:101544006F8F0022002303F0C9FE00BF9C0A002015
:1015540001B572B60B4A906900281EBF0021916143
:1015640005F0FAFB62B6EFF30580A0F110004FEA34
:10157400C0000549014409C99847BDE80140034931
:10158400084700009C0A00204C73000095150000D9
:10159400044B9968D869884203D003494FF08052BC
:1015A4000A6070479C0A002004ED00E010B5144660
:1015B400184B9A6A9A6A9B6A13F0020F0BD0154B68
:1015C4005A6B9B6A13F0800F05D021B1114A936ABC
:1015D40023F0800393620F4B9A6A9A6A9B6A13F012
:1015E400100F01D10B4B9B6A0A4B9B6A13F0200F1F
:1015F40004D0084A536A23F400535362054A936A99
:1016040043F0FF039362012104F086FA2070002066
:1016140010BD00BF00ED00E010B51446124B9A6AED
:101624009A6A9B6A13F4007F0BD00F4B9A6B9B6AE8
:1016340013F4004F05D021B10B4A936A23F40043FD
:101644009362094B9A6A9B6A13F4807F01D1064B1B
:101654009B6A054A936A43F47F439362012104F031
:101664005BFA2070002010BD00ED00E00A4B9A6A7E
:101674009A6A986A10F480100BD1074B9A6A9A6A96
:101684009A6A9A6A9A6A6FEA02426FEA12429A6204
:1016940070470220F1E700BF00ED00E081690D4BC7
:1016A4005A6942F480725A61BFF34F8FBFF36F8F50
:1016B40031F8021C5A6922F480725A61BFF34F8FC9
:1016C400BFF36F8F4DF60273994201D0002070472B
:1016D4000120704700ED00E038B5054600230B708B
:1016E4001A4BD86A10F002002DD10C46DB6A002B8D
:1016F4002ADB164BD86A10F0804025D02846FFF725
:10170400CDFF08B128681FE0104B9B6A13F0FF0F50
:101714000DD10E4B986A10F47F400ED10B4B9B6A8F
:10172400B3F5803F10D32846FFF7A0FF0CE0224614
:1017340001212846FFF73AFF06E022460121284608
:10174400FFF76AFF00E0002038BD00BF00ED00E0B5
:1017540070B58AB00C46224B5968C1F308010023C6
:1017640083F31188BFF36F8F02F07F43B3F17F4F90
:1017740015D102F00C03082B14D012F0080F0BD073
:1017840000260DF12702204604F0CBF905469DF80A
:10179400273053B10AB070BD04460126F1E7002694
:1017A4003446EEE700263446EBE72022214601A822
:1017B40004F07DFA4EB1089BC3F308025AB96FEAEC
:1017C40053236FEA4323089305E0089B23F4FF7334
:1017D40023F00103089301A9284604F077F9D9E717
:1017E40000ED00E0044B5A6942F010025A615A6954
:1017F40042F480625A61704700ED00E0EFF3088024
:10180400EFF3098101B57246FFF7A2FF01BD00BFE6
:10181400002207E003F1604303F56143202183F8CC
:1018240000130132442A09DC53B2002BF2DA03F02C
:101834000F030349194420230B76F2E7704700BFD6
:10184400FCEC00E0002015490870002080F31488A7
:10185400BFF36F8F002080F30A8880F30B88FFF7B3
:1018640007FB00200E490860BFF34F8F0D4880F33B
:10187400088800F041F8202080F311880A484FF4CA
:101884000061401880F30988EFF3148002210843B3
:1018940080F31488BFF36F8FFFF7ACFDC00C0020FA
:1018A40094ED00E0081A0020C80C0020BFF34F8F0D
:1018B4000549CA6802F4E062044B1343CB60BFF3EA
:1018C4004F8F00BFFDE700BF00ED00E00400FA0504
:1018D400084BD3F89000C0F30720002306E0054A24
:1018E400C2F898300021C2F8A01001338342F6DB1D
:1018F400704700BF00ED00E010B572B6002484F319
:101904001388FFF7E5FF234608E003F120010E4AA0
:101914004FF0FF3042F821000133DBB20F2BF4D932
:10192400002308E003F16001074A4FF0FF3042F85A
:1019340021000133DBB20F2BF4D962B6BFF34F8F12
:10194400BFF36F8F10BD00BF00E100E008B50A4B84
:101954009B68834202D003F043F908BDEFF305838B
:10196400002BF8D0054B5A6842F080525A605A6AEC
:1019740022F400425A62EEE79C0A002000ED00E0E7
:1019840010B584B00A4C23460A4A01210A4804F0DF
:1019940059F90023019302930393084B0193E41A2A
:1019A4000294012101A804F051F904B010BD00BF54
:1019B4000000072000000020C877000090010020EC
:1019C400024B034AC3F8C020704700BF00ED00E09B
:1019D400AAFF4400034BC3F89800C3F89C10C3F853
:1019E400A020704700ED00E00E4BC3F89800C3F848
:1019F4009800D3F89C000A7A60F304020A72D3F8C0
:101A0400A020C2F34202087A62F347100872D3F8A6
:101A14009C2022F01F020A60D3F8A03023F01F0399
:101A2400CB60704700ED00E02DE9F04F87B08146B0
:101A3400009101931446002734E0D84565D1294626
:101A4400C0B204F0CFF82CE0584AC2F89860D2F83B
:101A54009C3003F01F0321F01F010B43C2F89C309C
:101A64002946E0B204F0BEF8044610F1160F00F067
:101A74009680013415E0013B4C49C1F89860D1F8D7
:101A8400A02002F01F0223F01F031343C1F8A0306B
:101A94002946E0B204F0A6F8044610F1160F7ED0F1
:101AA40001340137009B9F4279DA07EB47054FEA7F
:101AB400850A09EB85056E68002EF2D0019B23B1DF
:101AC400284604F072F8002865D0314659F80A0017
:101AD40004F0A7F8064610F1160F5FD0A04262DAB0
:101AE400324BC3F89800D3F89C2022F01F02C3F8AD
:101AF4009800D3F8A03043F01F0859F80A306968F9
:101B0400194401F1FF3B9A4297D09A429CD0D845A0
:101B1400B1D0013B2549C1F89860D1F8A02002F06A
:101B24001F0223F01F031343C1F8A0302946E0B27B
:101B340004F058F8044610F1160F30D001301B4B56
:101B4400C3F89860D3F89C109DF8102061F3040248
:101B54008DF81020D3F8A030C3F34203D2B263F35C
:101B640047128DF8102059F80A306A68134402931A
:101B740023F01F03A8EB0B084344013B23F01F038E
:101B8400059302A9C0B204F022F8044610F1160F1E
:101B940005D0013485E76FF0150400E004462046C3
:101BA40007B0BDE8F08F6FF01504F8E700ED00E032
:101BB40010B5034C01232278FFF736FF207010BDC7
:101BC400BB0C002070B505460E46002400E001342D
:101BD400A6421EDD04EB44039A0005EB8303596817
:101BE4000029F4D0A85804F01CF804EB84030B4A31
:101BF40042F8230010F1160F0CD0094B1B789842C1
:101C040009DA04EB840302EB83010431FFF7ECFEF1
:101C1400DDE7002070BD6FF01500FBE76C090020C4
:101C2400BB0C0020044B0522C3F89420BFF34F8F54
:101C3400BFF36F8F704700BF00ED00E0BFF35F8F0D
:101C4400024B0022C3F89420704700BF00ED00E06F
:101C540038B50E4B1D68082D15D8FFF7EFFFFFF7B9
:101C6400AFFE002407E0094B596801EB041120463C
:101C740003F087FF0134A542F5D8054B1D70FFF72B
:101C8400D1FF002038BD4FF0FF30FBE7D8770000CC
:101C9400BB0C0020014B1860704700BF28000020D7
:101CA400004870470C0A0020034BC01A8010034BF5
:101CB40003FB00F0704700BF94090020B76DDBB64A
:101CC40038B505460C46FFF7EFFF014640220348AE
:101CD40004F0ECF801462846A04738BDEC72000039
:101CE40030B583B005460C46FFF7DEFF01464023BE
:101CF40000932346054A064804F0F2F8011E01DB6E
:101D040003B030BD2846A047FAE700BF2D5F0000AE
:101D1400EC72000008B5052815D8DFE800F0031AB6
:101D24001414151000210D4804F04BF8836813F0C7
:101D3400070F08D10021094804F0A6F803E00221A6
:101D4400064804F0A1F808BD0321044804F09CF8F7
:101D5400F9E70121014804F097F8F4E7EC72000078
:101D640010B582B04FF02003EFF3118483F312888F
:101D7400BFF36F8F144A136843F00201116013F02C
:101D8400010F09D1002384F31188BFF36F8FB3B916
:101D940004F0D2F802B010BD0DF1070201214FF09A
:101DA400502003F0D4FF9DF80730012B01D000230D
:101DB400E9E7FFF775FF04F054F80123E3E7002196
:101DC400024804F061F8E5E7340A0020EC720000F0
:101DD40010B54FF02003EFF3118483F31288BFF39F
:101DE4006F8F084A136823F00201116013F0010F8A
:101DF40004D084F31188BFF36F8F10BD04F0B0F8E2
:101E0400F7E700BF340A002070B582B00546012808
:101E140007D14FF05023D3F81C3403F00303022BF3
:101E240037D004F062FF044610B92B4B1B787BB902
:101E34004FF02003EFF3118683F31288BFF36F8F03
:101E4400012494B94FF050230222C3F808230CE074
:101E54000026F6E7FCB13046FFF786FA4FF0502330
:101E6400D3F81835DBB2012B19D00DF1070200218C
:101E74004FF0502003F06BFF0028EBD09DF80730A3
:101E8400022B01D0012DE5D104B386F31188BFF3F1
:101E94006F8F02B070BD012004F076F8DEE74FF0DA
:101EA4005023D3F80431002BDFD04FF0502300220D
:101EB400C3F80421D3F804210222C3F81825074AE1
:101EC4002021C2F8801101229A60CEE74FF05023FE
:101ED4000222C3F80423DCE7C00C002000E100E088
:101EE40000B585B0CDF800D0CDF804D0002302931E
:101EF400012303936B46074A04F00EF8002805DB20
:101F04004FF480420023684602F040F905B05DF8C2
:101F140004FB00BFB95F000070B506460022012132
:101F2400052003F0E2FD114801F0E4F8104B98425B
:101F340019D104F048FD0024032C12D82146304660
:101F440003F03FFF05462146304603F045FF0949AB
:101F540003F0AFFA002805DB0123AB601C44E4B2B4
:101F6400EAE7002070BD6FF00400FBE7191D0000D4
:101F74000000AD0B1078000010B504460E4B012193
:101F8400D3E8EF2FC3E8E01F0028F9D11AB1631E8C
:101F9400012B0DD910BD094803F01EFF0849002389
:101FA4004B608B60CB6001238B6003F09FFAEEE7FC
:101FB4002046FFF729FFEDE790090020EC720000AE
:101FC4008009002010B504460A2806D0E1B206486C
:101FD40083685B689847204610BD034883685B6844
:101FE4000D219847F2E700BF3473000010B5044C8C
:101FF4002046FFF74FFE2046FEF76AFA10BD00BFE9
:10200400C91F000008B5054804F0DDFD18B1FFF74D
:10201400EDFF002008BD6FF01200FBE734730000F1
:1020240028B1012801D103487047002070470248B5
:10203400704700BF047300001C730000F0B585B046
:102044000E46194643681B7B06F01F0545EA4315F7
:10205400B2F5001F22D007461446002301930293D1
:10206400104604F081F88DF804007B689968F1400B
:1020740011F0010F02D1B4F1A07F14D0002301AA02
:102084001946284601F022FB1A4B98422FD1012110
:10209400284601F07FFC002005B0F0BD284601F081
:1020A400ABFC0020F8E705F01F036A09012A12D0EF
:1020B400114A803352F8233013F0010FDED10DF1B1
:1020C4000F01284601F00AFC0C4B984205D00DF193
:1020D4000F030293D2E70A4AEBE70DF10F0001F078
:1020E40051FC044B9842F2D06FF00B00D4E76FF030
:1020F4001500D1E70000AD0B002584500400AD0BA2
:10210400002884502DE9F04186B00E461446D0F8DC
:10211400048098F80C3001F01F0545EA43150DF1D1
:102124001701284601F0DAFB074614F4403F39D082
:102134000021039104910B4603AA284601F0C6FA34
:10214400324B98425FD19F423CD014F4003F47D0B9
:102154000DF10301204603F094FF074648BB9DF8A8
:1021640003308DF8043014F4803F0CBF01230023A6
:102174008DF80530204603F0C7FF8DF8060014F4EF
:10218400002F24D0D8F804200123B3409360002208
:1021940001A9284601F030FB1C4B984209D06FF08E
:1021A400150706E0284601F049FC184B9F4204D06D
:1021B4000027384606B0BDE8F0819DF8170001F00D
:1021C400D9FBF5E79DF8170001F0D4FBBDE714F443
:1021D400802FDCD0D8F804200123B340D360D6E7A5
:1021E400204603F091FF8DF8080000231A4602A947
:1021F400284601F06BFA054B984201D10027D8E735
:102204006FF01507D5E76FF01507D2E70000AD0BA7
:1022140008B501F0A5FB08B1002008BD01F076FB6C
:10222400084B98420AD10021074801F051FB0022D3
:1022340005210D2003F059FC0020EEE76FF00400A7
:10224400EBE700BF0000AD0BA561000043681A680E
:10225400B1F5164F6FD03AD8B1F5165F6ED00AD9E2
:10226400B1F5E14F75D024D947F6122399422BD109
:102274004FF4000313E0B1F5966F61D007D9B1F5BF
:10228400166F63D0B1F5965F10D13C4B07E0B1F502
:10229400967F58D0B1F5167F05D14FF41C33C2F8A0
:1022A4002435002070476FF0150070476FF015005B
:1022B4007047B1F5615F4ED0B1F5964F01D1304B07
:1022C400EDE76FF0150070476FF015007047B1F53A
:1022D400613F42D009D9B1F5612F46D01FD9294BAE
:1022E400994248D14FF08053D9E7B1F5963F37D0A2
:1022F40005D9B1F5E13F0FD14FF0EB73CFE74DF6C0
:10230400C02399422ED0B1F5614F02D14FF46B0333
:10231400C5E76FF0150070476FF0150070471A4B52
:10232400994225D0B1F5E12F02D14FF0E863B6E729
:102334006FF0150070474FF41D03B0E7134BAEE781
:102344004FF49E23ABE74FF4A033A8E74FF41D23CB
:10235400A5E70F4BA3E70F4BA1E74FF06C739EE784
:102364000D4B9CE74FF4650399E74FF0706396E7D4
:102374004FF0806393E76FF01500704700B01300CF
:1023840000A04E0040420F0090D0030000502700F0
:1023940000C0750000F03A0000903A01F8B5054617
:1023A4000E46076904F0A1FC10B9124B1B7883B9DF
:1023B4004FF02003EFF3118483F31288BFF36F8F80
:1023C400284603F0B0FF40B984F31188BFF36F8F40
:1023D400EEE7284604F00CF804463B691E7001221F
:1023E4003969284603F0B9FF84F31188BFF36F8F6E
:1023F400F8BD00BFC00C002038B505460C4601F1FD
:10240400180000F0EDFE0A4B98420ED1237E43F0F3
:102414000043C5F8A031C5F88C30227E01239340D7
:10242400044AC2F80435002038BD6FF00400FBE70D
:102434000000AD0B0070015021F07F4100F5A87041
:10244400014B43F820107047005001504FF4803383
:102454008340024AC2F84433704700BF0050015021
:102464004FF480338340024AC2F84833704700BFB8
:1024740000500150014BD3F804057047005001503F
:102484002DE9F04106468846FFF7EAFF304604F09E
:1024940058F84546032701E03D19013729463046DF
:1024A400FFF7CAFF3046FFF7D1FFFFF7E3FF04460B
:1024B400C11C284604F034F80B4B984211D930461D
:1024C40004F032F80028E7D0FFF7D4FF0446414671
:1024D40004F026F8B0F5000F03D9304604F031F8C3
:1024E400DAE7BDE8F08100BFFDFF7F0010B50123EE
:1024F40083406FEA030C0C4AD2E8EF1F01EA0C0E8A
:10250400C2E8E4EF002CF7D14FF480328240074850
:10251400C0F80823BFF35F8FBFF36F8F0B4214BF64
:102524000120002010BD00BF540A002000500150BB
:102534004FF480338340124AD2F80423134201D16A
:102544000020704710B5044601238340DB430D4946
:10255400D1E8EF2F02EA0300C1E8EC0FBCF1000F51
:10256400F6D122FA04F313F0010F03D1204603F04D
:10257400DBFF18B1204603F0E4FF012010BD00BFCB
:1025840000500150500A002001B9704701238340D4
:102594000D4AD2E8EFCF4CEA030CC2E8E1CF0029A0
:1025A400F7D14FF480338340084AC2F80433084B10
:1025B400D3E8AF3FC34013F0010FE6D0054B4FF40F
:1025C4000012C3F80021E0E7540A00200050015033
:1025D400500A002000E100E038B5144610461946C0
:1025E40003F0BBFF02460D490B68E01A1B184C6848
:1025F40044F100040B604C60A2F50013B3F5400FE6
:1026040009D2074B1B68190A1B06D41841F10005AF
:10261400044BC3E9004502F01BFC38BDA0010020B7
:10262400580A0020A801002038B50D4B1C68250A63
:102634002406BFF35F8FFFF71DFF0346001945F122
:102644000001B3F5801F0AD2064BD3E90023904260
:1026540071EB030303D210F1807041F1000138BD26
:10266400580A0020A8010020F8B5064614461D4665
:102674001046194603F071FF0746FFF7D5FFA04245
:1026840071EB050315D2201A65EB0101154B984235
:1026940071F1000123D2144B03EB0613D3E9022397
:1026A400AB4208BFA2420ED039463046FFF7E8FEDF
:1026B40009E00123B3400D4AD2E8EF0F1843C2E802
:1026C400E10F0029F8D1084B320103EB0616C6E9E5
:1026D400024506999950079B73600020F8BD6FF07E
:1026E4001500FBE70100800090010020500A002043
:1026F40030B583B000231D4AC2F80835002B24DD11
:102704001A4C0225C4F80453194B4FF40012C3F8B1
:10271400802100220121152003F0E7F9152003F0A0
:10272400DFF90123A3602360124A1360002401949B
:10273400114B0093114A0023204603F01FFF284643
:10274400FFF71AFC204603B030BD0D4A02EB03121A
:102754004FF0FF304FF0FF31C2E902014FF48032F5
:102764009A400249C1F804230133C7E700500150DD
:1027740000E100E0540A0020DD250000FFFF7F0097
:10278400900100202DE9F04782B00446FFF7D0FE07
:1027940010B902B0BDE8F087FFF746FF82460D4648
:1027A40003F0DEFE0646154B03EB0413D3E902895E
:1027B400C24575EB09050BD20025304603F0D9FE5E
:1027C400002DE6D0009742464B462046A847E0E756
:1027D4000A4A230102EB0411D5584F680020D05057
:1027E4004FF0FF324FF0FF33C1E902232046FFF7D9
:1027F40037FE204603F0A5FEDFE700BF900100206E
:1028040010B50E4BD3F8043313F0020F0DD00B4B5D
:10281400D3F804314BB1094B0022C3F80421D3F897
:102824000431074A1368013313600024002C00DDCF
:1028340010BD2046FFF7A6FF0134F7E70050015012
:10284400580A002010B582B0B0F1FF3F06D001282D
:1028540009DD154B984224DC044605E0134B0022A5
:102864001A70134C03E00124104B01221A70FFF775
:10287400DBFE104B1A685B68801AB0F5000F00D3BA
:1028840000240444B4F5000F00D3094C00201219AD
:1028940001900949009143F1000303F06FFE02B077
:1028A40010BD034CE0E700BFFEFF7F00BE0C00201C
:1028B400FFFF7F00A0010020DD25000008B5FFF721
:1028C400B3FE024B1B68C01A08BD00BFA001002064
:1028D40030B400F01F0C4009012818D00D4D0CF144
:1028E400800055F8204004F0E04C41EA420141EAFE
:1028F40083039DF8082043EA02239DF80C2043EA51
:10290400024343EA0C0345F8203030BC7047024DC3
:10291400E5E700BF002584500028845059B900F031
:102924001F014009012804D0094A01238B40D360C8
:102934007047084AF9E700F01F014009012804D054
:10294400034A01238B4093607047024AF9E700BFB2
:1029540000258450002884502DE9F04F85B00746A7
:102964008B469046002422E04FF0FF352CE0C8F857
:102974000C550126039631467F2D16D0B1F1FF3F49
:1029840040F00E8157F80A3013F4005F02D001269C
:102994000022039200220192CDF80090C3F3C113E8
:1029A400324603992846FFF793FF0134E4B25C45AD
:1029B40080F0FA804FEA840A57F82430C3F343299D
:1029C40003F07F057F2DCFD01B0C222B00F2EE806D
:1029D40001A252F823F000BF73290000692A000005
:1029E400772A0000832A0000912A00009F2A000011
:1029F400AB2A0000B12B0000B12B0000B12B00006A
:102A0400B12B0000B92A0000CD2A0000B12B000030
:102A1400B12B0000B12B0000B12B0000B12B000042
:102A2400B12B0000B12B0000B12B0000B12B000032
:102A3400E12A0000F32A0000052B0000172B0000F8
:102A4400B12B0000B12B0000B12B0000292B00009A
:102A5400392B0000452B0000552B0000652B00008E
:102A6400752B0000C8F81455002603964FF0FF316B
:102A740082E7C8F808550126039631467CE7C8F872
:102A84001055002603964FF0FF3175E7C8F8085536
:102A940000260123039331466EE7C8F80C5501263E
:102AA4000396002168E7C8F81055002603964FF0F6
:102AB400FF3161E7C8F80855B9F1000F60D000266E
:102AC40003964FF0FF3157E7C8F80C55B9F1000FE2
:102AD4005ED0002603964FF0FF314DE7C8F86055ED
:102AE40057F80A10C1F380310126039644E7C8F869
:102AF400645557F80A10C1F38031012603963BE769
:102B0400C8F8685557F80A10C1F3803101260396B6
:102B140032E7C8F86C5557F80A10C1F38031012622
:102B2400039629E7C8F824550126002303934FF0A0
:102B3400FF3121E7C8F828550126039631461BE7E3
:102B4400C8F830550126002303934FF0FF3113E7F3
:102B5400C8F834550126002303934FF0FF310BE7E7
:102B6400C8F838550126002303934FF0FF3103E7DB
:102B7400C8F83C550126002303934FF0FF31FBE6D0
:102B84004E46CDF80C904FF0FF314FF00609F3E6B6
:102B94004E46CDF80C904FF0FF314FF00609EBE6AE
:102BA4002846FFF7BBFEEDE6002001E06FF085004C
:102BB40005B0BDE8F08F00BF38B520B14FF098657F
:102BC400002420460CE04FF40015F9E7074B53F8B6
:102BD400340003EBC40319792A4603F005FD0134DC
:102BE400032C01D80028F1D038BD00BF547900006F
:102BF40038B50024254600E00134032C10D8094BD5
:102C040003EBC402117953F8340003F040FD0028AB
:102C140005DB0028F0D00123A3401D43ECE7002589
:102C2400284638BD5479000010B54FF02003EFF367
:102C3400118483F31288BFF36F8F0020FFF7BCFF6A
:102C4400084B1B7823B184F31188BFF36F8F10BD39
:102C5400044B01221A7021220023034801F004FCD2
:102C6400F1E700BFBF0C0020B001002070B505469D
:102C74000E460F4B1B6803B198474FF0FF324FF0DD
:102C8400FF330C4801F09CF90B4B1C6814B1043C55
:102C940000E0043C3CB12368314628469847646808
:102CA400002CF6D1F6E7034801F00EFA70BD00BF20
:102CB400900A0020640A0020780A002010B5FFF76B
:102CC40097FF04461B4BD3E8EF2FC3E8E14F0029DD
:102CD400F9D1194B1B7843B9184B1968A14207D095
:102CE40061402046FFF7C2FF02E0134B00221A7036
:102CF400124B1C6084B94FF02003EFF3118483F36B
:102D04001288BFF36F8F0E4B1B78012B0BD084F30B
:102D14001188BFF36F8F10BD4FF4A47200230948CC
:102D240001F0A2FBF7E7064B00221A700120FFF71F
:102D340043FFECE78C0A002034010020600A0020E5
:102D4400BF0C0020B0010020064BD3E8AF3F00B118
:102D5400036019B1044A12685A400A60024A1360B7
:102D6400704700BF8C0A00205C0A002038B5334B42
:102D74001860334804F00CF800240BE0202141F4DF
:102D84008031304800EBC40003F06AFC034600289D
:102D940052D10134032C08D82A4B03EBC403DB883B
:102DA40013F0010FEAD01021E9E70024254607E0DB
:102DB400244B03EBC4031A79012393401D430134CC
:102DC400032C0DD81F4B53F8340003EBC4031979BB
:102DD4004FF4001203F008FC03460028E8D02BE06F
:102DE400194B1A4A5A609D600024032C09D81649CD
:102DF400144B53F8340003F077FC0346E0B9013474
:102E0400F3E7134C1349204604F048F8124B01220F
:102E14001A7000220023204601F01EFB0021084600
:102E2400FFF792FFFFF7E4FE0C4BD3E8EF2FC3E864
:102E3400E10F0029F9D10023184638BD900A00207B
:102E4400640A002054790000800A00202D2C000020
:102E5400B0010020C12C0000BF0C00208C0A00200F
:102E64000F2823D870B505460E460F2922D8002412
:102E74000BE00122114B03EBC401097953F8340030
:102E840003F025FC034678B90134032C0BD825FA4A
:102E940004F313F0010FECD126FA04F313F0010F3D
:102EA400F2D00022E6E70023184670BD6FF0150348
:102EB400184670476FF01503F6E700BF3479000039
:102EC40010B50024032C0AD84FF40031074800EB56
:102ED400C40003F0C5FB034630B90134F2E70F2107
:102EE4000020FFF7BDFF0346184610BD34790000EB
:102EF4004FF05023D3F8582502F00302024BD3407D
:102F0400024A1360704700BF0020A1074800002058
:102F140008B503F079FC68B14E4BD3F8203A4BB9AD
:102F24004C4B0D22C3F8202A0122C3F81C2900228D
:102F3400C3F81C2900220BE002F160034FF47F0167
:102F440051F83310DB0003F57F035B680B6001323B
:102F54001F2A08D802F160034FF47F0151F833307F
:102F6400B3F1FF3FE8D103F027FC30B1394B2922FC
:102F7400C3F80C270322C3F83C2703F0D1FB40B16C
:102F8400354B364AC3F830254FF050230122C3F89D
:102F9400582503F0D9FB18B1314B0022C3F84C2556
:102FA40003F0EAFB68B14FF05023D3F8003413F078
:102FB400010F06D04FF050230022C3F81421C3F8A8
:102FC400182103F0EDFB60B14FF05023D3F8003427
:102FD40013F0010F05D04FF050236FF00102C3F836
:102FE400002403F0FDFB18B11A4B6522C3F80C272B
:102FF40003F01EFC20B11A4BD3F82034002B11DB54
:10300400184AD2F88C3043F44063C2F88C30164A24
:103014001168164BC3F84415D269C3F84C25FFF761
:1030240067FF08BD4FF050230322C3F8182501227F
:103034009A604FF05023D3F80431002BF9D04FF0AD
:1030440050230022C3F804210122DA60C3F81825B2
:10305400D6E700BF00400050009003504400EFBE8C
:103064000020035000ED00E00080FF0000600050ED
:1030740010B50468B4FA84F3C3F11F035FFA83FC48
:10308400002B12DB012202FA03F324EA0303D0E843
:10309400EF2FA24204D1C0E8EE3FBEF1000FF6D1FB
:1030A400E7D181F800C0024810BD0248FCE700BF28
:1030B4000000AD0B0200AD0B0368CB4013F0010F11
:1030C40011D100B5026801238B401343D0E8EFCF40
:1030D400944504D1C0E8EE3FBEF1000FF6D1F1D122
:1030E40002485DF804FB0248704700BF0000AD0BC6
:1030F4000400AD0B054B1B792BB9044B186001225E
:103104001A71034870470348704700BF940A0020AF
:103114000000AD0B0C00AD0B08B54FF05023D3F8F5
:10312400003163B14FF050230020C3F80001D3F8FD
:1031340000210122C3F80823284B1B6898474FF04D
:103144005023D3F80431BBB14FF050230022C3F80D
:103154000421D3F80421D3F8182402F00302D3F88D
:103164001834012A31D04FF050230222C3F8082327
:103174001A4B1B68012098474FF05023D3F8203195
:1031840073B14FF050230022C3F82021D3F820213B
:103194004FF48072C3F80823104B1B68042098472F
:1031A4004FF05023D3F8243173B14FF05023002251
:1031B400C3F82421D3F824214FF40072C3F8082360
:1031C400064B1B680520984708BD4FF05023022288
:1031D400C3F8182501229A60CEE700BF940A0020A4
:1031E40008B501460148FFF743FF08BD4C00002025
:1031F400F0B51C46059F069E00F01F0C40090128EF
:1032040034D0274D0CF1800355F8233081B30120CD
:1032140082B34FF0020E40EA0E0074B34FF00C0E6E
:1032240040EA0E0067B34FF4706E40EA0E0056B3E6
:103234004FF4403E40EA0E0023EA000031B30B781D
:1032440032B312785200134324B32278920013430A
:1032540017B33A781202134306B3327812041343B5
:1032640003430CF1800C45F82C30F0BD0D4DC9E73B
:103274000020CDE74FF0000ECDE74FF0000ECFE772
:103284004FF0000ED1E74FF0000ED3E70023D7E74D
:103294000022D8E70022DAE70022DCE70022DEE79A
:1032A400002584500028845000F01F0240090128A2
:1032B4000AD00649803251F8223003F0E04343F04B
:1032C400020341F8223070470149F3E70025845096
:1032D4000028845000B583B084468E460C4B93E896
:1032E400030002AB03E90300634609E002A901EB12
:1032F400830151F8081C086A42F8040B0862013380
:103304000CEB0E009842F1D803B05DF804FB00BF4B
:10331400307600000830034B33F8100000F0010051
:10332400704700BF500000200830034B33F81000F2
:10333400C0F34010704700BF500000200830044B19
:1033440033F8100010F01C0018BF0120704700BFB4
:10335400500000200830034B33F81000C0F3400045
:10336400704700BF500000200830024B33F81000B3
:10337400400B704750000020002204E04FF0FF3360
:1033840083420FD001322F2A0AD802F108030649DA
:1033940031F8133013F4807FF0D0C3F34323EFE705
:1033A400002070470120704750000020002313B113
:1033B4004FF0FF307047074A52F83320824201D061
:1033C4000133F4E7034A02EBC30252688A42F7D19D
:1033D400184670475000002000F108020E4B33F8E5
:1033E4001230C3F38203042B10D0052B10D000F04D
:1033F4001F024009012807D0084B1B69D34013F072
:10340400010F07D003207047054BF6E703207047F0
:10341400022070470220704750000020002584508D
:10342400002884500830064B33F8100010F4807FD5
:1034340004D0C0F3432003EBC00070470020704762
:103444005000002070B504460D46FFF7EBFF20B195
:103454000668426829462046B047044B9B6823B15E
:10346400024AD26829462046984770BD5000002081
:1034740070B506460C461546084603F08CFB60B949
:10348400022D26D00221304603F05DFB032C24D00C
:10349400022D20D0032D25D070BD21463046FFF7E4
:1034A400D1FF06F01F037209012A10D00F4A80339E
:1034B40052F82330C3F301439D42EDD1002130463D
:1034C40003F041FB2946304603F03DFBE4E7084A9C
:1034D400EDE70321D7E7012CDCD121463046FFF785
:1034E400B1FFD9E7022CD7D1F7E700BF00258450FC
:1034F4000028845000F108020E4B33F8123013F404
:10350400807F16D010B5C3F34324104623F4F85338
:10351400084A22F810302046FFF72EFF00B110BDF4
:103524000448002340F8343021467430FFF7C4FDCA
:10353400F5E770475000002010B50446FFF7F4FE8D
:1035440050B12046FFF710FF084B00F5A27000228F
:1035540043F8202043F820202046FFF7CBFF08340F
:10356400034B002223F8142010BD00BF00D00050EC
:103574005000002070B582B005460E461446FFF791
:10358400B9FF26B321463046FFF710FF031E13DBB5
:10359400104941F8336001EBC302546005F108009F
:1035A40031F810205B029BB2134343F4807321F87B
:1035B4001030094802B070BD0DF107010748FFF74C
:1035C40057FD054B9842F5D19DF80730E0E70248D6
:1035D400F0E700BF500000200000AD0BC400002045
:1035E40070B582B06A4602210020FFF773FE3EE008
:1035F400214E05F1800356F82320C2F30142FFF760
:1036040037FF0123AB40336202AB03EB840353F86F
:10361400080CF8B190FAA0F0B0FA80F000EB441076
:1036240000F10802154B33F81210C1F38201C508EA
:1036340000F007061DF805200123B340DB435BB20D
:1036440013400DF8053000F01F054309012BCFD0BE
:103654000B4ECEE70134012CD6D90A4B0022C3F815
:103664007C21D3F87C31684603F09AFA08B100242F
:10367400F1E702B070BD00BF002884505000002064
:103684000025845000D0005038B5044618E094FA60
:10369400A4F3B3FA83F301229A4024EA02040A4A07
:1036A40003F5A27352F82350C5F3052552F82300FD
:1036B400C0F3014003F06DFA01462846FFF7C2FE4D
:1036C400002CE4D138BD00BF00D000502DE9F041FA
:1036D40084B0044615461E4609B30F4603F043FA68
:1036E40000283FD100238DF80E308DF80F30019360
:1036F40000933B460DF10F020DF10E012046FFF73A
:1037040077FD394A04F1080132F8113023F002033D
:103714009BB222F8113043F0010322F81130BDB1FD
:103724002F78D5F804802046FFF714FEE0B1B8F1F5
:10373400000F53D12C4A04F1080132F8113023F060
:103744001C039BB222F8113043EA870322F811309C
:10375400002E47D0726831682046FFF70BFF04B093
:10376400BDE8F0812148FAE71F4A04F1080132F864
:10377400113023F02003DB04DB0C22F81130B8F104
:10378400000FD7D0032F2BD86B681D7847B9184B7F
:1037940005F5A275002243F8252043F82520C9E742
:1037A400384603F0F7F90346114805F5A27150F8BD
:1037B400212022F0030240F821202246294603F06A
:1037C4008AF9094A04F1080132F811306D03ADB2E7
:1037D4002B4343F0200322F81130ABE70348BEE744
:1037E4000248BCE70348BAE7500000200400AD0BD0
:1037F40000D000500000AD0B70B584B004461546EF
:1038040029B30E4603F0BEF920B12046FFF78CFD24
:1038140000283AD12046FFF791FD10B17378012BAF
:1038240033D001238DF80F30002301930096B31C8D
:10383400721C0DF10F012046FFF7DAFC204A04F157
:10384400080132F8113043F0030322F8113095B324
:10385400204603F097F980BB2E781A4B06F5A27226
:10386400002143F8221043F82210154A04F10801FC
:1038740032F8113023F02003DB04DB0C22F8113082
:103884006B7823B9104804B070BD1048FBE7AA78E0
:103894000092224631460B4803F036F9084A0834B0
:1038A40032F814307603B6B2334343F0200322F8DF
:1038B40014300548E7E70448E5E70448E3E700BFB8
:1038C4005000002000D000500000AD0B0400AD0BF0
:1038D400014B9860D96070475000002038B5044609
:1038E4000D46FFF721FD40B104F10800044B33F805
:1038F40010305B0B2B70034838BD0348FCE700BF56
:10390400500000200000AD0B0400AD0B0F4B93F8EA
:1039140078300BB10E48704710B50E4C6022002170
:10392400204602F0F3F90D2002F0DAF80A4B0022E7
:10393400C3F87C21D3F87C214FF00042C3F8042360
:10394400012384F868306366044810BD50000020E9
:103954000500AD0B6000002000D000500000AD0B4E
:10396400034B93F87800003818BF0120704700BF5C
:103974005000002008B501460148FFF79DFB08BD33
:10398400C000002008B501460148FFF771FB08BDDF
:10399400C000002038B504460D46FFF7C5FC00B34F
:1039A400204603F0EFF8E0B12046FFF7DDFC83008A
:1039B40003F580739BB203F1A04303F55043002247
:1039C4001A601B680B4A00F5A27152F8213043F0CB
:1039D400010342F821305DB101238340C2F804336E
:1039E40006E02046FFF7F8FC0146204603F0ABF85A
:1039F40038BD00BF00D0005010B50446FFF794FC5A
:103A0400A0B1204603F0BEF880B12046FFF7ACFC1D
:103A140001228240084BC3F8082300F5A27053F832
:103A2400202022F0030243F8202003E00021204656
:103A340003F089F810BD00BF00D0005010B5044653
:103A4400FFF768FC08B9064810BD2046FFF7D4FF0D
:103A54002046FFF771FD2046FFF726FC0148F3E7F7
:103A64000400AD0B0000AD0B38B501204FF480739A
:103A740000210C4603E0400004339BB201310729C6
:103A840014D803F1A04202F550421268002AF2D081
:103A94000C4AD2F804231042EDD003F1A04202F5FF
:103AA40050420025156012680443E4E7054BD3F83F
:103AB4007C311BB92046FFF7E7FD38BDFFF790FDC9
:103AC400F8E700BF00D00050034B00E01833034A6E
:103AD4009342FBD3704700BFEC7200004C730000AC
:103AE40070B50646114B53F8204009E0404217E0F8
:103AF400EB681870EA68537843F001035370083494
:103B0400731C0A4A52F82330A3420DD9656823680E
:103B140028469847002DF2D00028EBD00028E5DB9A
:103B2400FF28E5DDFF20E3E770BD00BFCC7900008E
:103B340010B586B0B023114C03FB004400EB800C9D
:103B440000EB40000E4B03EBC0030E4A059201222A
:103B540004920F22039200220292019200930A4BD4
:103B64004FF4A072094901EB8C11204600F05CF976
:103B7400637B23F00403637306B010BDE0010020EF
:103B84009C0A0020BC790000893F0000C814002072
:103B940008B50A4B01221A700320FFF7A1FF01F0B8
:103BA400D9F90420FFF79CFF00F0A2F9FCF77AFC96
:103BB400034A137B23F00103137308BDC00C0020D8
:103BC4009002002008B50146014A0248FDF7AAFC0C
:103BD400953B00009002002008B50348034A121ADE
:103BE400002103F01AF808BD90010020C40C002045
:103BF40010B50446FFF79CFFB0230A4903FB0411E8
:103C0400094A04EB440302EBC303D9601C75074B58
:103C140003EBC42303F5006304EB440402EBC40286
:103C2400536010BDE00100209C0A0020C80C002055
:103C340070B586B000F006FF104D114BDD61114BDD
:103C440005930123049300240394029401940094A3
:103C54000D4B4FF480620D49284600F0E5F8064606
:103C64006B7B23F004036B73284603F09FF9204613
:103C7400FFF7BEFF304606B070BD00BF90020020C3
:103C84009C0A0020C4790000953B0000081600201F
:103C940000B5ADB00020FFF723FF1D4B03F5006214
:103CA40082F3088883F30A881A4CE02384F82230CC
:103CB4000025E57725766576A57684F82050636A35
:103CC40043F4E023636284F82350FDF78BFDFDF792
:103CD40031FB4FF0FF33A362E362FDF7B9FFFDF759
:103CE4004FFE01248DF80D408DF80C402695279544
:103CF4002995094BC3F808D0FFF7E6FE2046FFF7E5
:103D0400EFFE0220FFF7ECFEFFF792FFFFF75AFFEA
:103D1400C80C002000ED00E09C0A002010B5064C01
:103D2400002000E01C34054B9C4204D2204602F0E3
:103D34007CFF0028F6DA10BD3D0100203D01002083
:103D440030B583B00D464FF02001EFF3118C81F3B1
:103D54001288BFF36F8F6146446964B12C60236895
:103D64004361836901338361002081F31188BFF3C8
:103D74006F8F03B030BD00F1080E53EA020404D182
:103D840000232B606FF00B00EFE7009201930246D3
:103D9400704600F051FD0028EBD1024B9B685B6933
:103DA4002B60E6E79C0A00204FF02003EFF311811B
:103DB40083F31288BFF36F8F0A4B9B6A834204D14B
:103DC4001A6F084B9A6207E0134613B11A6F8242C6
:103DD400FAD10BB1026F1A6781F31188BFF36F8FA9
:103DE400704700BF9C0A002010B5044640B11F2252
:103DF40004F1740001F02EFF002084F8930010BD3C
:103E0400014B9C68F3E700BF9C0A002008B553EA05
:103E1400020102D102F06FFF08BD0249183000F020
:103E24008DFFF9E7E96F00002DE9F04F85B00446F6
:103E34000F4615461E46DDF838A0DDF83C90DDF847
:103E44004080DDF84CB000F158038365C365129BD4
:103E54000422119902F053FF2A463946204602F003
:103E640038FF0546CDF80880CDF80490CDF800A0C1
:103E74003346024639462046FDF732FB002363658C
:103E84002666C4F864A0C4F86890C4F86C804FF047
:103E94002003EFF3118283F31288BFF36F8F134B68
:103EA400996A21679C6282F31188BFF36F8FBBF11B
:103EB400000F13D01F22594604F1740001F0CAFE0A
:103EC400002384F89330094B9B685BB1D3F8A4308A
:103ED400C4F8A430284605B0BDE8F08F002384F868
:103EE4007430F0E7C4F8A430F4E700BF9C0A002063
:103EF40030B587B0214C14E0E36A0593236A049338
:103F0400E3690393A36902936369019323690093AB
:103F1400E368A26861682068FFF786FF23685C6530
:103F24003034174B9C42E7D300F038FB134C00E0CD
:103F34003034134B9C421CD2606AB0F1FF3FF7D07F
:103F4400256820EAE070C117C90341EA5041C00363
:103F540040F2E733C0184FF47A724FF0000341F196
:103F64000001FCF7F5F802460B462846FFF74EFF22
:103F7400DEE700F015FD07B030BD00BF747500002A
:103F84007475000008B501E0FDF7DAF94FF020027E
:103F9400EFF3118382F31288BFF36F8F03F026F9D6
:103FA400054B9861054B1B78002BEDD0FCF7C4FF43
:103FB4000028EBD1E8E700BF9C0A0020C00C0020D9
:103FC4002DE9F04182B004461E464FF02003EFF382
:103FD400118583F31288BFF36F8F2B46C16899B99B
:103FE400002951D1364A926892F90E20226101319A
:103FF400E160334A9268A26083F31188BFF36F8F44
:10400400002002B0BDE8F081174680682C4A92680F
:104014009042E5D056EA070138D090F90E80414627
:1040240092F90E0002F09EFE804536DC4FF0000847
:104034000097019622462946224800F0FDFB0028FD
:10404400DFD04FF02003EFF3118583F31288BFF321
:104054006F8F2E46A36843B323689C4223D013B3C7
:10406400216993F90E0002F07DFE0146204602F01C
:1040740084FEE8B9B8F1000F1AD186F31188BFF3B2
:104084006F8F6FF00A00BCE72269AFE785F31188F0
:10409400BFF36F8F6FF00F00B3E70146204602F0C5
:1040A4006CFE8046C4E72169E0E7B8F1000FE4D074
:1040B4002946044800F05CFA6FF00A00A1E700BF4B
:1040C4009C0A0020C80A002083688BB370B504469C
:1040D4001A4A926893422ED1C368012B03D9013B3B
:1040E400C360002070BD4FF02003EFF3118583F30C
:1040F4001288BFF36F8F016902F03FFE204602F081
:10410400ECFFA06068B190F90E3023610024C0F880
:10411400AC4002F04BFF2946094800F029FA20463A
:10412400E0E70020E06085F31188BFF36F8FD9E7E3
:104134006FF0150070474FF0FF30D3E79C0A002062
:10414400C80A002038B504464FF02003EFF3118568
:1041540083F31288BFF36F8F02F0BFFF48B10022D0
:10416400C0F8AC2002F022FF2946074800F000FA0C
:1041740038BDA368E268934203D001221344A360CC
:10418400F2E70022FAE700BFC80A002010B582B0A7
:104194004FF02004EFF3118184F31288BFF36F8F83
:1041A400846844B1013C846081F31188BFF36F8F4C
:1041B400002002B010BD53EA020406D0009201931D
:1041C4000246054800F038FBF3E781F31188BFF39A
:1041D4006F8F6FF00F00ECE7C80A002070B338B59A
:1041E4000D4604461B4B9B6883421BD000231A4692
:1041F400D4F8C830C3F38001C3F3C00013F0010F37
:104204001FD001B102B300B109B300232B60D4F86D
:10421400B43073B11D60C4F8B450204602F0D2FD2E
:10422400012038BD02F061FD08B90123DFE7002356
:10423400DDE7C4F8B450C4F8B050EEE76FF01500F1
:1042440070476FF01200ECE76FF00F00E9E76FF0D2
:104254000F00E6E79C0A0020F8B50646C36823F081
:104264000203C360134B1D6885B12C6804B10DB102
:10427400002710E02C46FBE72A4639460D4802F099
:104284008EFD05F10800FFF75DFF09E02C46EFE71E
:10429400234625461C4665B16B68B342ECD02F46D5
:1042A400002CF5D02368002BF3D0002CF1D1234649
:1042B400EFE7F8BDC80A002070B584B0054616E0E3
:1042C400D5F8C83023F00402C5F8C82013F0040F51
:1042D4005AD1002302934FF0FF324FF0FF33CDE960
:1042E400002305F1B80231462E4800F0B1FC4FF02E
:1042F4002003EFF3118683F31288BFF36F8F3246E6
:10430400D5F8B040002CDBD02368C5F8B030D5F820
:10431400B4108C4235D0D5F8C83043F00203C5F848
:10432400C830E36843F00101E16023F0040343F083
:104334000103E360636882F31188BFF36F8F204643
:1043440098474FF02003EFF3118683F31288BFF3ED
:104354006F8FE36823F00103E36013F0020F1DD1B4
:10436400D5F8C83023F00203C5F8C830C3F30023DE
:1043740086F31188BFF36F8F002BB8D100F06EFB6A
:10438400B5E7C5F8B430C6E705F1C0040022012141
:10439400204602F0C8FE0028F8D19AE72046FFF72D
:1043A4005BFFDDE7D00A002008B58446084653EADF
:1043B40002010CD0C16841F00801C160DCF80010B2
:1043C40081620549103000F0B9FC012008BD614646
:1043D40002F002FDFAE700BF3D6E0000F0B589B0BF
:1043E40004460E9D0020C4F8B000C4F8B40004F1E3
:1043F400B800C4F8B800C4F8BC0004F1C000C4F8A4
:10440400C000C4F8C400FDB12879F8B90120C4F88B
:10441400C8004FF0FF364FF0FF37CDE906670020A4
:10442400049003930290019000940A4B204602F0FA
:1044340071FC25B1296811B12046FFF7D5FC20464F
:1044440002F059FC09B0F0BD0120E0E740F2011090
:10445400DDE700BFBD42000008B50146014802F097
:1044640029FD08BD4803002008B50146014802F0B3
:104474003BFD08BD48030020C3897F2B0ED8437B36
:1044840013F01F0F0CD190F90E20084B1B689A42B1
:1044940008DB074B984207D0012070470020704783
:1044A400002070470020704700207047D40A002085
:1044B400E0010020B3F1FF3F08BFB2F1FF3F00D19C
:1044C400704708B50249183000F038FC08BD00BF39
:1044D400E96F000010B5074B1C6804B910BDFEF766
:1044E400EDF90444044B1C610021024B186802F0EE
:1044F40094FEF3E7D80A00209C0A002070B5044615
:104504000E4600234FF02002EFF3118582F3128848
:10451400BFF36F8F0EE00228B8BF02201860114B62
:104524001E60114B9868FFF7D5FF85F31188BFF320
:104534006F8F0123A3B90C4B00221A61610CE003B5
:1045440040F2E733C0184FF47A724FF0000341F1A0
:104554000001FBF7FDFD054B1860002CDBDCDEE7FA
:1045640070BD00BFD40A00209C0A0020D80A002095
:1045740008B50B4659B9EFF3058242B9064AD0692A
:104584009268904203D00846FCF750FF03E083F39F
:104594001188BFF36F8F08BD9C0A002000234FF0E1
:1045A4002002EFF3118182F31288BFF36F8F09E0C9
:1045B400064B9A68D37B013BD37381F31188BFF315
:1045C4006F8F0123002BF3D0704700BF9C0A00209B
:1045D40038B50446104802F0E2FC054670B184B9CF
:1045E4000E4B9B685A7B12F01F0F0AD1AA6942B97D
:1045F400DA897F2A05D9094AD3610BE0074BDD68C4
:10460400EDE7064B9B68AB4202D02846FFF762FFFA
:10461400024BDD6138BD00BFBC0A00209C0A0020AB
:1046240038B50546427B90F90D30002B0ADB6B7BD5
:1046340063F07F036B731B4B53F8204F9C4210D1E4
:1046440000240EE002F07F0242730146164802F095
:1046540090FCECE763686B602C601D60656017E09C
:1046640000246CB12146284602F05FFC0028F1DCEE
:10467400002CF6D00B4B5B6A9C42F1D02468F0E727
:10468400084B5A6A03F1200129606A6015605D6273
:10469400044B9868A84214BF00200120FFF798FF3C
:1046A40038BD00BF9C0A0020BC0A002038B504466F
:1046B400074B9D686B7B13F01F0F04D02846FFF750
:1046C40009FF204638BD2846FFF7AAFFF6E700BFDA
:1046D4009C0A0020F8B505464FF02003EFF311863D
:1046E40083F31288BFF36F8F154B9868154B1B68C3
:1046F400984211D03446134B00221A60124B1B68A7
:10470400B3B1FFF7B9FE98B10D4B1B69AB420ADD9B
:104714005B1B0B4A13610EE0FFF7DCFE86F3118886
:10472400BFF36F8F0BE03046FFF7C0FF044602E093
:10473400034B00221A6184F31188BFF36F8FF8BD15
:104744009C0A0020D00A0020D80A0020427B90F95D
:104754000D30002B33DB70B5044612F01F0F01D16E
:10476400866906B170BD62F07F024273144B53F840
:10477400205F9D4208D1354606E06B686360256082
:104784001C606C6017E035466DB12946204602F086
:10479400CCFB0028F1DC002DF6D0094B5B6A9D426E
:1047A400F1D02D68F0E7064B5A6A03F1200121602D
:1047B400626014605C620020FFF70AFFD2E7704772
:1047C4009C0A002010B54FF02003EFF3118483F30B
:1047D4001288BFF36F8F437B13F0040F04D184F36B
:1047E4001188BFF36F8F10BD23F004034373FFF7E9
:1047F400ADFF21460148FFF7BBFEF4E7DC0A0020C9
:1048040010B50446427B90F90D30002B08DB084BB1
:104814009868A04214BF00200120FFF7D9FE10BD04
:1048240002F07F0242730146024802F0A2FBEEE767
:104834009C0A0020BC0A002010B50C4611460A4808
:1048440082680A4B1A604FF02002EFF3118382F35F
:104854001288BFF36F8FDDE90223806802F031FC18
:104864002046FCF7E3FD10BD9C0A0020D00A00207E
:104874002DE9F84305460F4600234FF02002EFF3DD
:10488400118682F31288BFF36F8F184629E063689C
:104894006B602C601D60656017E044466CB1214676
:1048A400284602F042FB0028F1DC002CF6D01D4B18
:1048B4005B6A9C42F1D02468F0E71A4B5A6A03F110
:1048C400200129606A6015605D620120FFF780FEA7
:1048D400012001E0AF73002086F31188BFF36F8FCE
:1048E4000123E3B96B7B13F01F0FF3D1D5F81880C4
:1048F400B8F1000FEED103F07F036B73DFF828905B
:104904002946484602F035FBAF736B7B63F07F03A7
:104914006B73D9F800404C45C0D14446BEE7BDE8AE
:10492400F88300BF9C0A0020BC0A002038B5044666
:10493400183002F03DFC00234FF02002EFF3118504
:1049440082F31288BFF36F8F10E0637B43F0100390
:104954006373114B9868A04214BF00200120FFF735
:1049640037FE85F31188BFF36F8F012363B9627B30
:1049740094F90D30002BE8DA02F07F0262732146CD
:10498400064802F0F6FAE0E7034B9B68A34200D026
:1049940038BD02F0E2FAFBE79C0A0020BC0A0020C2
:1049A40010B500234FF02002EFF3118482F3128834
:1049B400BFF36F8F0CE0094B9A68D37B0133D37339
:1049C4000020FFF705FE84F31188BFF36F8F0123E6
:1049D400002BF0D002F0C1FA10BD00BF9C0A0020E9
:1049E400437B13F0080F2AD110B5044643F00802A4
:1049F400427323F0200242F00802427312F0800F47
:104A040013D1A36813B1204602F0BBFA04F11800D5
:104A140002F0CEFB04F1580002F013FB0120FFF773
:104A2400D7FD2046FFF7C0F910BD03F05F0343F044
:104A3400080343730146024802F09BFAE1E770471A
:104A4400BC0A002008B5044802F069FB00210846AE
:104A5400FFF754FD08BD00BFB80A0020F8B54FF0B9
:104A64002003EFF3118683F31288BFF36F8F1D4C7D
:104A7400A1684B7B03F07F034B7304F12007384696
:104A840002F077FAA5686B7B63F07F036B73246A8B
:104A9400BC4208D1002406E063686B602C601D6092
:104AA400656017E000246CB12146284602F03DFA07
:104AB4000028F1DC002CF6D00A4B5B6A9C42F1D052
:104AC4002468F0E7074B5A6A03F1200129606A6001
:104AD40015605D620120FFF77BFD3046FCF7A6FC04
:104AE400F8BD00BF9C0A00202DE9F04150EA010303
:104AF40038D004460E466FF001031B1A4FF0FF3204
:104B040062EB0102012B72F100022FDB6FF0010551
:104B14002D1A4FF02003EFF3118883F31288BFF3AB
:104B24006F8F144FB868144B1860FFF769FEB868AC
:104B3400224633461149183000F000F9BA68537B15
:104B440043F0100353734046FCF770FC02F090FBF3
:104B5400281A63EB0303012873F1000300DA002031
:104B6400BDE8F081FFF77AFF0020F9E702F080FB4F
:104B74000519CEE79C0A0020D00A0020E96F000046
:104B840008B5B1F1FF3F08BFB0F1FF3F18D0FFF700
:104B9400ABFFC217510141EAD06143011B1A61EB1B
:104BA4000201890041EA93719B001B1842EB010248
:104BB400D20042EA5372C3F3103343EA424008BDC1
:104BC400034B9868FFF7B2FE4FF0FF30F7E700BFE2
:104BD4009C0A0020014B9868704700BF9C0A002083
:104BE40070B54FF02003EFF3118583F31288BFF300
:104BF4006F8F2E46037B13F0010F09D10446437BCC
:104C040013F0080F0FD085F31188BFF36F8F09E0FD
:104C140085F31188BFF36F8F404080F311884FF004
:104C2400040002DF70BDFFF7DBFE084B9B68A34264
:104C340004D086F31188BFF36F8FF3E7EFF3058396
:104C4400002BF6D12846FCF7F1FBF2E79C0A002082
:104C54002DE9104883B0089CDDE906BCCDE900BC11
:104C6400FFF7EAFD1CB1034B9B685B69236003B04B
:104C7400BDE810889C0A002008B50648064A121AA6
:104C8400064901F0CEFF064A0649074801F0C9FF6C
:104C940008BD00BF0000002090010020B07A000091
:104CA40000000000B07A000000000020034B1868E8
:104CB400984200D070470020FCE700BFCC000020E1
:104CC40030B1044A5268904201D000687047002015
:104CD400704700BFCC00002008B5044B1B680BB123
:104CE400002008BDFDF7EAFDFBE700BFDC0A002059
:104CF40010B5FFF7DBFF0446FFF7EEFF7CB1236935
:104D040062691B1A62EBE072B3F1004F72F10001A9
:104D140008DA002A01DB184606E00023FBE76FF0FF
:104D2400004001E06FF00040034B1B6913B1834264
:104D340000DA184610BD00BF9C0A0020B3F1FF3F03
:104D440008BFB2F1FF3F7BD02DE9F04704469246FD
:104D54001D46816000234FF02002EFF3118782F398
:104D64001288BFF36F8F26E01AF1010845F100099C
:104D7400FFF7B2FF18EB000349EBE07023616061B9
:104D84003BE0521A66EB03030261436143686360CC
:104D940020601C60446005E02A4B5A68236062600E
:104DA40014605C60FFF782FF84423AD087F3118875
:104DB400BFF36F8F0123002B40D153466FF00101E5
:104DC400B1EB0A014FF0FF3060EB0502002ACBDBA8
:104DD4001D4A116852685B1842EB05026FF001012D
:104DE400C91A60EB020308461A46012973F100034D
:104DF40001DA0120002220616261FFF757FF0028D9
:104E0400CAD00269466921696369914273EB060E4F
:104E1400B7DB891A63EB060321616361FFF750FF77
:104E2400EDE7FFF765FF034618B1084A12698242AD
:104E3400BCD000211846FDF705FDB7E7BDE8F087B3
:104E4400704700BFCC000020400300209C0A0020D3
:104E540070B50446FFF73EFC4FF02003EFF31186D4
:104E640083F31288BFF36F8F284B1C6021E0284A1C
:104E7400136851685B1941EBE571136051600022BE
:104E84000023C4E90423204602F07BF986F3118849
:104E9400BFF36F8FA368204698474FF02003EFF3CA
:104EA400118683F31288BFF36F8F184A13685B1B54
:104EB4001360FFF7FBFE044638B105694169134BE3
:104EC4001A68D317AA428B41D1DA44B123696269C3
:104ED4000E4909685B1A62EBE172236162610C4A54
:104EE4000A4D2868136851681B1841EBE071136080
:104EF400516000242C60FFF7FBFE2146FDF7A2FC65
:104F040086F31188BFF36F8F70BD00BFDC0A0020E9
:104F14004003002010B500224FF02003EFF311846A
:104F240083F31288BFF36F8F134611460CE0FFF72B
:104F3400D3FE074A13685168C31841EBE07184F348
:104F44001188BFF36F8F0122002AF0D0184610BDDC
:104F54004003002008B5024800F0B2F908BD00BFC4
:104F6400E879000010B584B0084B029300248DF852
:104F74000C4002AB00934FF0FF334FF480620449BE
:104F84000448FFF72BFA204604B010BD187A00003D
:104F9400081A00204803002010B50A4C23681BB1EE
:104FA40001230020236010BD00F0F4F80028F7D09E
:104FB4000138072803D8044B53F8200010BD0348D8
:104FC40010BD00BFE00A0020247A0000FE8FFFFF1E
:104FD400BFF34F8F0549064BCA6802F4E0621343DE
:104FE400CB60BFF34F8F00BFFDE700BF00ED00E0D3
:104FF4000400FA0530B44FF0FE3200250B4B0C4C84
:105004000C494968C3F80024C3F80424C3F80824ED
:10501400C3F80C24C3F81024C3F81424C3F81824C8
:10502400C3F81C24C4F8005530BC08470050845011
:1050340000408450D4000020024BD0E90012C3E9A0
:1050440000127047D400002010B5044650B16368C4
:1050540013F0685F05D0064A934202D000236260D1
:10506400236010BD034B04485B689847EFE700BF1B
:105074002C5F5CA9D4000020447A0000C8B14368C6
:105084000D4A934213D013F0685F0ED0012350E809
:10509400002F194640E8001C9CF0000FF7D1012AAC
:1050A400F5D0BFF35F8F0020704704487047044871
:1050B40070476FF4E04070472C5F5CA9E98FFFFFF5
:1050C400EA8FFFFF034680B1426809498A420AD049
:1050D40012F0685F05D0BFF35F8F002210461A609C
:1050E400704704487047044870476FF4E0407047C5
:1050F4002C5F5CA9E98FFFFFEA8FFFFF10B5044620
:1051040020B10023034A2360626010BD0248FFF708
:1051140071FFF6E73A00003A6C7A000070B5194C5A
:10512400D0F804C00668C4F804C0D0F808C0C06849
:10513400C4F808C0E06026600868134B134D18607B
:105144004868D5F818215860886812F0685F98603C
:10515400C8680969D860196112D000230C4A05F5A2
:105164008A70C5F81431C5F8B831C5F81821C5F8E6
:10517400BC21B047236805F5DC70BDE870401847D2
:1051840070BD00BFE4000020F4000020F80A0020F5
:105194002C5F5CA908B500F011F830B900F010F8E4
:1051A40038B9054AC2F80C0A08BD00F037F80320E4
:1051B40008BD042008BD00BF005084500020704783
:1051C40010B5114800F048F800B110BD0F4800F0C8
:1051D40043F80028F9D10E4C204600F03DF8002891
:1051E400F3D10C4B0C481C6000F036F80146002843
:1051F400EBD100F02DF8044608B1204610BD00F0B4
:105204003FF82046FAE700BF2C01002020010020CF
:1052140028010020300100202401002008B508489E
:1052240000F024F8074800F021F8074800F01EF8C1
:10523400064800F01BF8BDE8084000F00BB800BFBA
:105244002C0100202001002028010020240100203E
:1052540000207047704700BF08B5034B02681B6805
:1052640010689847002008BDE400002008B5034BEF
:1052740002685B6810689847002008BDE4000020BD
:1052840070B5094C094D2069AB68984718B1084BB3
:1052940008485B6898470021074AEB681160206959
:1052A400BDE87040184700BFF4000020E40000206F
:1052B400D4000020907A0000F40A002000207047F7
:1052C4000FB400B583B004A951F8040B0191FBF7A6
:1052D40005F903B05DF804EB04B0704708B5044663
:1052E400084611461A46A047FFF774FCFCF72EFB4C
:1052F40001F00701038B23F007030B43038370477B
:105304002DE9F04106460F469046816821B10C68AC
:105314003CB131B90C4604E00C4602E02346214678
:105324001C4669B14D6843463A463046A847002CAE
:10533400F4D02368002BF2D0002CF0D12346EEE702
:10534400BDE8F081038B13F0070303D102680AB1AF
:1053540003207047022B03D0012B06D00020704796
:10536400428B002AF8D10420704703680BB1052052
:1053740070470020704710B504468C46038B002A02
:1053840007DB03F007035A1F012A0ED9042B36D07A
:1053940010BDD0E900018CE80300002323606360A2
:1053A40001212046FFF7A4FFF2E7D0E900018CE8D1
:1053B4000300002222606260062B1BD1DCF800305F
:1053C40053B1628B013262831A461B68002BF7D0FB
:1053D400002AF5D11346F3E702212046FFF788FFA0
:1053E4002046FFF7AFFF0028D2D0238B43F02003E1
:1053F4002383CDE700212046FFF77AFFF0E7002161
:10540400FFF776FF2046FFF79DFF0028C0D0238BCF
:1054140043F020032383BBE750B110B50C4651B1D0
:10542400081D00F0C4F810B9A368032B06D810BDFA
:105434006FF0150070476FF01500F8E76FF0150076
:10544400F5E72DE9F04107460C4616461D46194678
:10545400201D00F0C3F828B180462B463246214671
:105464003846C047BDE8F0812DE9F04180460C463E
:1054740017461E4604E033463A464046FFF7E1FF2E
:10548400216831B10D68256063688B42F3D1656092
:10549400F1E7BDE8F08108B54FF0200CEFF311827D
:1054A4008CF31288BFF36F8F41610121FBF724F85D
:1054B40008BD034670B181B10A688AB14A6892B1E5
:1054C4000020186058609860D8601861586198612D
:1054D400196170476FF0150070476FF01500704741
:1054E4006FF0150070476FF01500704770B50546F2
:1054F4000E46FFF791FF041E30DB4FF02003EFF35D
:10550400118283F31288BFF36F8F9646B5F818C0E3
:105514000CF0070C6B8B4FF6FF718B422CD064465A
:10552400BCF1020F08D0BCF1060F19D8DFE80CF06B
:105534001E1818181E2A1E0001336B830123002134
:10554400084628B100203060686808B306606E60C1
:1055540009BB8EF31188BFF36F8F0BBB204670BD60
:105564006FF00404002319461846EAE7BCFA8CF1EC
:10557400490900230120E4E76FF00A0400231946D7
:105584001846DEE76FF08504002319461846D8E76D
:105594006E602E60DCE702212846FAF7ADFFDDE7F6
:1055A4000023624631462846FFF74BFFD6E7024602
:1055B40058B1436803F00303012B03D0032B07D135
:1055C400036843B10020906070476FF01500704786
:1055D4006FF0150070476FF015007047034642687E
:1055E40002F003028160032A03D1006800225A609A
:1055F40070470020FAE784460268002006E000EBCA
:105604008000013203EB4003A3F130001378A3F1CF
:1056140030010929F3D9CCF80020704730B583B0A4
:1056240004460191037843F0800303700D460B7820
:105634002A2B18D001A8FFF7DEFF019B9D420FD053
:10564400237843F0800323706060DBB2C3F340032C
:10565400002810DB00221343227863F341022270F6
:10566400019803B030BD437843F00103437008460A
:1056740001300190F5E70122EDE710B582B0019108
:105684000B782E2B14BF00230123427863F34102CD
:105694004270C3B10446019B5A1C01925B782A2BC9
:1056A40013D001A8FFF7A7FFA0602378C3F340033A
:1056B400002812DB00221343227863F34102227094
:1056C400019802B010BD0846FBE7437843F0040399
:1056D4004370104601300190F3E70122EBE70246E4
:1056E4000B784C3B2E2B5BD8DFE803F04F5A5A5A09
:1056F4005A5A5A5A5A5A5A5A5A5A5A5A5A5A5A5A06
:105704005A5A5A5A5A5A5A5A185A3A5A295A5A5A88
:105714005A5A5A5A485A5A5A5A5A4100481C4B78AB
:10572400682B05D05378022161F3C6035370704788
:105734005378012060F3C6035370881C7047481CDB
:105744004B786C2B05D05378032161F3C603537057
:1057540070475378042060F3C6035370881C704765
:105764005378052060F3C6035370481C7047537880
:10577400062060F3C6035370481C70475378072013
:1057840060F3C6035370481C70475378082060F3D5
:10579400C6035370481C137843F002031370704718
:1057A40053786FF3C60353700846704700B502463A
:1057B400084610F8013BD370782B17D86E2B29D2EA
:1057C400692B13D8582B17D3A3F1580C5FFA8CFC10
:1057D400012101FA0CF111F4624F14D140F6010CCD
:1057E40011EA0C0F55D111F4043F3AD1137843F068
:1057F40001031370002142E0412B04D0F6D3453B52
:10580400DBB2022BF2D89378042161F30203937084
:10581400012134E0A3F16E01C9B24FF0010C0CFA7E
:1058240001FC40F282411CEA010F14BF4FF0010E4B
:105834004FF0000E2DD11CF0240F14BF01210021C4
:1058440039D11CF0010CD1D093784FF0030E6EF3D4
:1058540002039370537803F07803402B0FD1614611
:105864000DE091784FF0010C6CF3020191705178C6
:1058740001F07801402913D0632B18D0002113784C
:10588400C3F3400C41EA0C0161F3410313705DF86A
:1058940004FB91784FF0020C6CF302019170E6E77F
:1058A40092F800C04CF0010C82F800C0E4E7003923
:1058B40018BF0121E3E793784FF0030C6CF3020364
:1058C4009370537813F0780FD9D17146D7E710B598
:1058D40004460846002323606360A3604B78252BAD
:1058E40014D001312046FAF7BDFE01462046FFF7E9
:1058F40095FE01462046FFF7C0FE01462046FFF70D
:10590400EEFE01462046FFF751FF10BD0230E37062
:10591400FBE76F280CD005D970280BD078280BD161
:1059240010207047582801D00A2070471020704773
:1059340008207047102070470A2070472DE9F84F5F
:1059440005460C46934699460A9FD078A0F1410A31
:10595400FFF7DFFF064615E0BAF1190F20D8D2B2DF
:105964003732D2B207F8012D324643462846214643
:10597400FAF7EEFBB54274F1000415D34F4513D981
:1059840005460C464FF00008324643462846214659
:10599400FAF7DEFB092ADFD8D2B23032D2B2E1E71D
:1059A400D2B25732D2B2DDE79BF8003013F0200FA9
:1059B40003D0082E04D0102E09D03846BDE8F88F45
:1059C4009BF8023043F008038BF80230F5E79BF8AC
:1059D400023043F010038BF80230EEE74378C3F350
:1059E400C303072B18D8DFE803F00406080A0C10D9
:1059F40014160A6070470A7070470A8070470A607C
:105A04007047D3170A604B607047D3170A604B6026
:105A140070470A6070470A6070472DE9F0410746F5
:105A24000E4614469846002506E0314614F8010B4C
:105A3400B847002809DB01354445F6D3B8F1000F17
:105A440002D12378002BF0D12846BDE8F0817047BD
:105A540008B5FBF749F908BD0123C0F80035BFF3C9
:105A64004F8F20BFFDE7002383F31188BFF36F8FAF
:105A7400704700B501F01F0201239340490900EB70
:105A84008100D943D0E8EF2F02EA010CC0E8EECF41
:105A9400BEF1000FF6D1134214BF012000205DF8BF
:105AA40004FB01F01F0201239340490900EB81002C
:105AB400D0E8EF2F1A43C0E8E12F0029F8D170474E
:105AC4000020704708B50020FBF7FAF808B501F08C
:105AD4008AF808BD08B501460068FFF7F7FF08BD5E
